:020000040800F2
:1000000000500020A9200008ED1E0008EF1E000887
:10001000F11E0008F31E0008F51E00080000000095
:10002000000000000000000000000000F71E0008B3
:10003000F91E000800000000FB1E0008FD1E00085D
:10004000F1200008F1200008F1200008091F000835
:10005000F1200008F1200008F1200008F12000083C
:10006000F1200008F1200008F1200008F12000082C
:10007000F1200008F1200008F1200008F12000081C
:10008000F1200008F1200008F1200008F12000080C
:10009000F1200008F1200008F1200008191F0008D5
:1000A000291F0008391F0008491F0008591F0008B0
:1000B000F1200008F1200008F1200008F1200008DC
:1000C000F1200008F1200008F1200008F1200008CC
:1000D000F1200008F1200008F1200008F1200008BC
:1000E000691F0008F1200008F1200008000000004E
:1000F0000000000000000000000000000000000000
:0C01000000000000000000005FF808F1A3
:10010C0010B5054C237833B9044B13B10448AFF345
:10011C0000800123237010BD5C040020000000004F
:10012C001C22000808B5034B1BB103490348AFF36D
:10013C00008008BD00000000600400201C220008A4
:10014C0010B504460E4B18784FF47A73B3FBF0F3EA
:10015C000C4A1068B0FBF3F000F08EF868B90F2C65
:10016C0001D901200AE0002221464FF0FF3000F0B7
:10017C0043F8054B1C60002000E0012010BD00BFBF
:10018C0000000020280000200400002008B5074AC9
:10019C00136843F010031360032000F01BF80020D9
:1001AC00FFF7CEFF01F04CFE002008BD00200240FE
:1001BC00034A1168034B1B780B441360704700BF54
:1001CC007804002000000020014B1868704700BF25
:1001DC0078040020074AD36823F4E0631B041B0C4B
:1001EC00000200F4E060034343F0BF6343F40033C8
:1001FC00D360704700ED00E030B4174BDB68C3F3FD
:10020C000223C3F10704042C28BF04241D1D062D52
:10021C0018D9033B4FF0FF3505FA04F421EA040129
:10022C00994005FA03F322EA0303194300280BDB78
:10023C000901C9B200F1604000F5614080F800137B
:10024C0030BC70470023E5E700F00F000901C9B28C
:10025C00024B1954F4E700BF00ED00E014ED00E090
:10026C0000F01F02400901239340024A42F820305B
:10027C00704700BF00E100E00138B0F1807F0AD286
:10028C00064B5860064AF02182F823100020986033
:10029C0007221A6070470120704700BF10E000E091
:1002AC0000ED00E0042805D0054A136823F0040390
:1002BC0013607047024A136843F0040313607047DD
:1002CC0010E000E0704708B5FFF7FCFF08BD000028
:1002DC00F0B482B000252C46A3E07F4FBB4210D077
:1002EC0007D97E4FBB420CD007F58037BB4208D0F4
:1002FC0013E0A7F58017BB4203D007F57027BB426C
:10030C0007D18B68002B58D0012B51D042610825A6
:10031C0003E0A7F58017BB42F3D0FF2E4FD88446DD
:10032C00FF2E4FD8A200DCF800300F27974023EAAD
:10033C00070305FA02F21343CCF800304B6813F0B4
:10034C00805F6DD0664B9A6942F001029A619B699D
:10035C0003F001030193019BA208971C614B53F816
:10036C00273004F00307BF004FF00F0C0CFA07FC0A
:10037C0023EA0C0C5C4B98422AD003F5806398421C
:10038C0000F08A8003F58063984200F0878003F5C3
:10039C00806398421AD004231BE0CD68BDE7CD687A
:1003AC000435BAE7CD680835B7E7CD680C35B4E746
:1003BC0002610825B1E70025AFE70425ADE700F1A0
:1003CC00040CADE7A4F108029200ACE7032300E0B3
:1003DC000023BB4043EA0C030232424F47F8223061
:1003EC004B6813F4803F5BD0404A1368334313606F
:1003FC004B6813F4003F59D03C4A53683343536065
:10040C004B6813F4801F57D0384A9368334393607A
:10041C004B6813F4001F55D0344AD3681E43D66082
:10042C0001340F2C54D80122A2400B6803EA0206B7
:10043C0032EA0303F4D14B68122B3FF64EAF122B6A
:10044C003FF66BAF01A757F823F000BF0F0300086E
:10045C00A7030008B1030008C30300082703000822
:10046C0027030008270300082703000827030008B8
:10047C0027030008270300082703000827030008A8
:10048C002703000827030008270300082703000898
:10049C00AB030008B703000801239AE7022398E78F
:1004AC00124A136823EA06031360A1E70F4A536844
:1004BC0023EA06035360A3E70C4A936823EA060376
:1004CC009360A5E7094AD36823EA0606D660A7E736
:1004DC0002B0F0BC704700BF0000221000003110C9
:1004EC0000100240000001400008014000040140DF
:1004FC008368194201D001207047002070470AB16F
:10050C0001617047090401617047000008B5054B93
:10051C005B69034200D108BD024B586101F0F4F84D
:10052C00F9E700BF00040140014B01221A6070473B
:10053C0020000E4282B0084B1B68084AA2FB032322
:10054C005B0A00FB03F3019300BF019B5A1E01924F
:10055C00002BF9D102B0704728000020D34D621057
:10056C0070B582B00446036813F0010F2CD0AB4B6E
:10057C005B6803F00C03042B1DD0A84B5B6803F0E5
:10058C000C03082B12D06368B3F5803F41D0002BCD
:10059C0055D103F1804303F504331A6822F48032F9
:1005AC001A601A6822F480221A6037E09B4B5B6851
:1005BC0013F4803FE7D0994B1B6813F4003F03D032
:1005CC006368002B00F0AE81236813F0020F75D026
:1005DC00924B5B6813F00C0F5FD0904B5B6803F091
:1005EC000C03082B54D02369002B00F089808C4B12
:1005FC0001221A60FFF7E8FD0546884B1B6813F0D3
:10060C00020F74D1FFF7E0FD401B0228F5D903203F
:10061C008DE1824A136843F480331360636843B3FB
:10062C00FFF7D2FD05467D4B1B6813F4003FCBD181
:10063C00FFF7CAFD401B6428F5D9032077E1B3F519
:10064C00A02F09D0754B1A6822F480321A601A68F0
:10065C0022F480221A60E1E703F18043A3F53C33D6
:10066C001A6842F480221A601A6842F480321A60C6
:10067C00D4E7FFF7A9FD0546684B1B6813F4003F50
:10068C00A2D0FFF7A1FD401B6428F5D903204EE151
:10069C00624B5B6813F4803FA5D1604B1B6813F071
:1006AC00020F03D02369012B40F03E815B4A136893
:1006BC0023F0F803616943EAC1031360236813F064
:1006CC00080F32D0A369002B45D0564B01221A607B
:1006DC00FFF77AFD0546514B5B6A13F0020F21D1EF
:1006EC00FFF772FD401B0228F5D903201FE14B4A8E
:1006FC00136823F0F803616943EAC1031360DDE773
:10070C00474B00221A60FFF75FFD0546434B1B6801
:10071C0013F0020FD2D0FFF757FD401B0228F5D97A
:10072C00032004E10120FFF705FF236813F0040FF9
:10073C0000F09880394BDB6913F0805F1DD1374B8B
:10074C00DA6942F08052DA61DB6903F0805301937D
:10075C00019B012512E0334B00221A60FFF734FD98
:10076C0005462E4B5B6A13F0020FDED0FFF72CFD13
:10077C00401B0228F5D90320D9E000252A4B1B6821
:10078C0013F4807F11D0E368012B22D0002B38D1D9
:10079C0003F1804303F504331A6A22F001021A6252
:1007AC001A6A22F004021A6218E01F4A136843F412
:1007BC0080731360FFF708FD06461B4B1B6813F490
:1007CC00807FE0D1FFF700FD801B6428F5D9032062
:1007DC00ADE0124A136A43F001031362E3687BB382
:1007EC00FFF7F2FC06460D4B1B6A13F0020F38D1D3
:1007FC00FFF7EAFC801B41F288339842F3D90320BF
:10080C0095E0052B12D0054B1A6A22F001021A62F0
:10081C001A6A22F004021A62E0E700BF00100240DC
:10082C00000042428004424200700040424B1A6A6F
:10083C0042F004021A621A6A42F001021A62CDE70F
:10084C00FFF7C2FC06463C4B1B6A13F0020F08D0A4
:10085C00FFF7BAFC801B41F288339842F3D903208E
:10086C0065E0E5B9E369002B60D0334A526802F0C9
:10087C000C02082A5DD0022B17D0304B00221A60D4
:10088C00FFF7A2FC04462C4B1B6813F0007F47D0EB
:10089C00FFF79AFC001B0228F5D9032047E0264AF3
:1008AC00D36923F08053D361DCE7244B00221A6018
:1008BC00FFF78AFC0546204B1B6813F0007F06D01F
:1008CC00FFF782FC401B0228F5D903202FE0236A96
:1008DC00B3F5803F1AD018494B6823F47413226A7D
:1008EC00606A024313434B60144B01221A60FFF7FA
:1008FC006BFC0446104B1B6813F0007F0ED1FFF706
:10090C0063FC001B0228F5D9032010E00A4A536847
:10091C0023F40033A1680B435360DCE7002006E0AE
:10092C00002004E0012002E0012000E0002002B0E1
:10093C0070BD0120FBE700BF001002406000424286
:10094C0086B0164B0FCB0DF1180C0CE90F0040F2D2
:10095C000123ADF80430124B5B6803F00C02082A3B
:10096C0002D0104806B07047C3F38342624412F8B9
:10097C00102C13F4803F0CD0094B5B68C3F340433D
:10098C00634413F8143C074800FB02F0B0FBF3F08F
:10099C00E8E7054800FB02F0E4E700BF342200085A
:1009AC000010024000127A0000093D0070B50446A8
:1009BC000D46594B1B6803F007038B420BD2564A6A
:1009CC00136823F007030B431360136803F007034A
:1009DC008B4240F09A80236813F0020F06D04F4AE6
:1009EC00536823F0F003A1680B435360236813F0A2
:1009FC00010F52D06368012B23D0022B28D0474A19
:100A0C00126812F0020F00F0828044494A6822F00A
:100A1C00030213434B60FFF7D7FB06466368012BB9
:100A2C001DD0022B2AD03D4B5B6813F00C0F34D039
:100A3C00FFF7CAFB831B41F288329342F3D90320A0
:100A4C0062E0364A126812F4003FDED101205BE00E
:100A5C00324A126812F0007FD7D1012054E02F4B9C
:100A6C005B6803F00C03042B17D0FFF7ADFB831B63
:100A7C0041F288329342F2D9032045E0274B5B6860
:100A8C0003F00C03082B08D0FFF79EFB801B41F2F0
:100A9C0088339842F2D9032036E01F4B1B6803F0D1
:100AAC000703AB420AD91C4A136823F007032B43F4
:100ABC001360136803F00703AB422AD1236813F0C9
:100ACC00040F06D0154A536823F4E063E1680B4326
:100ADC005360236813F0080F07D0104A536823F4AF
:100AEC006053216943EAC1035360FFF729FF0B4BA5
:100AFC005B68C3F303130A4AD35CD840094B1860F4
:100B0C000020FFF71DFB002070BD0120FCE7012039
:100B1C00FAE70120F8E700BF002002400010024075
:100B2C009022000828000020014B1868704700BF75
:100B3C002800002008B5FFF7F7FF044B5B68C3F3F0
:100B4C00C223034AD35CD84008BD00BF001002404A
:100B5C00A022000870B582B00446036813F0010FA0
:100B6C0034D03E4BDB6913F0805F47D13B4BDA69E5
:100B7C0042F08052DA61DB6903F080530193019BF0
:100B8C000125374B1B6813F4807F39D0334B1B6A1C
:100B9C0013F4407311D0626802F440729A420CD084
:100BAC002E4A136A23F440702E4901260E6000264B
:100BBC000E60106213F0010F36D1284A136A23F429
:100BCC00407361680B431362002D3ED1236813F010
:100BDC00020F06D0214A536823F44043A1680B430B
:100BEC005360236813F0100F34D01C4A536823F45D
:100BFC008003E1680B43536000202CE00025C0E724
:100C0C00174A136843F480731360FFF7DDFA064646
:100C1C00134B1B6813F4807FB8D1FFF7D5FA801BF8
:100C2C006428F5D9032016E0FFF7CEFA06460B4BE5
:100C3C001B6A13F0020FC0D1FFF7C6FA801B41F2FA
:100C4C0088339842F3D9032005E0D36923F080530D
:100C5C00D361BBE7002002B070BD00BF00100240A2
:100C6C00007000404004424210B586B00446374B39
:100C7C000FCB0DF1180C0CE90F0040F20123ADF86D
:100C8C000430022C51D0102C04D0012C2CD000207C
:100C9C0006B010BD2E4B5A68186810F08070F7D053
:100CAC00C2F3834306A90B4413F8100C12F4803FD3
:100CBC0016D0274B5B68C3F340430B4413F8142C3A
:100CCC00244BB3FBF2F300FB03F0214B5B6813F4F2
:100CDC00800FDDD14000204BA3FB00304008D7E74C
:100CEC001E4B03FB00F0F0E7194B1B6A40F202327B
:100CFC001A40B2F5817F23D003F44073B3F5007F23
:100D0C0004D0B3F5407F09D00020C1E7104A526AE5
:100D1C0012F0020FF5D049F64040B9E70C4B1B68B6
:100D2C0013F4003F0FD10020B2E7FFF703FF084B8D
:100D3C005B68C3F3813301335B00B0FBF3F0A7E7CF
:100D4C004FF40040A4E74FF22440A1E734220008FE
:100D5C000010024000127A00ABAAAAAA00093D00BA
:100D6C0038B50446FFF730FA054623685A6812F086
:100D7C00200F07D1FFF728FA401BB0F57A7FF4D982
:100D8C00032004E05A6842F010025A60002038BD7B
:100D9C0038B504460268536823F010035360FFF71C
:100DAC0013FA054623685B6813F0200F07D1FFF791
:100DBC000BFA401BB0F57A7FF4D9032000E0002039
:100DCC0038BDC0B138B505460268536823F0080336
:100DDC005360FFF7F9F904462B685B6813F0080FB2
:100DEC0007D1FFF7F1F9001BB0F57A7FF4D9032096
:100DFC0000E0002038BD012070470000002857D0CB
:100E0C0010B50446437C4BB1022363742046FFF7B4
:100E1C00D8FF38B104236374012010BD037400F0B3
:100E2C00CBFDF1E72046FFF79BFF60BB22685368C0
:100E3C0023F007035360A36823B11E4A136B23F0FE
:100E4C00010313631B4AD36A23F46073A1680B4339
:100E5C00D3626268B2F1FF3F19D021688B6823F02E
:100E6C000F0343EA12438B602168CB681B0C1B04F5
:100E7C0092B21343CB602046FFF78AFF88B104235C
:100E8C0063740120C9E7042363740120C5E70120C2
:100E9C00FFF7EAFE08B1421EDFE70423637401206A
:100EAC00BBE70023E37301236373A3736374B4E799
:100EBC0001207047006C00407047704703681A6847
:100ECC0012F0010F1BD010B504465A6812F0010F36
:100EDC000FD05B6813F0040F0CD0FFF7EEFF236804
:100EEC006FF004025A600423637423686FF00102EC
:100EFC005A6010BDFFF7E0FF01236374F5E77047FC
:100F0C0030B4036A056A25F001050562846924F092
:100F1C00F00444EA021423F00A030B4384610362D5
:100F2C0030BC704730B4056A25F010050562846941
:100F3C00036A24F4704444EA023423F0A00343EA25
:100F4C0001138461036230BC7047836823F0700323
:100F5C0041F0070119438160704710B4846824F490
:100F6C007F4442EA03220A432243826010BC70474A
:100F7C000268D36843F00103D3600268136843F03E
:100F8C0001031360002070470268D36823F001034B
:100F9C00D3600368196A41F21112114208D1196A1F
:100FAC0040F24442114203D11A6822F001021A6045
:100FBC000020704790F83C30012B7ED010B50446D1
:100FCC00012380F83C30022380F83D30026893689E
:100FDC0023F47F4323F0770393600B68502B49D0A5
:100FEC0019D8202B5FD00DD9302B61D0402B3AD1A2
:100FFC00CA6849680068FFF783FF40212068FFF743
:10100C00A4FF30E0002B49D0102B2CD1102100680C
:10101C00FFF79BFF27E0B3F5805F1FD00ED9B3F528
:10102C00005F20D1CB684A6889680068FFF795FF9C
:10103C002268936843F48043936014E0602B23D0C0
:10104C00702B10D1CB684A6889680068FFF785FF60
:10105C002268936843F07703936004E00268936816
:10106C0023F007039360012384F83D30002084F8BB
:10107C003C0010BDCA6849680068FFF741FF502169
:10108C002068FFF762FFEEE7CA6849680068FFF75F
:10109C0049FF60212068FFF758FFE4E70021006852
:1010AC00FFF753FFDFE720210068FFF74EFFDAE779
:1010BC0030210068FFF749FFD5E7022070477047E1
:1010CC0070477047704710B5044603681A6912F0F0
:1010DC00020F11D0DA6812F0020F0DD06FF002027D
:1010EC001A610123037703689B6913F0030F70D017
:1010FC00FFF7E6FF0023237723681A6912F0040F29
:10110C0012D0DA6812F0040F0ED06FF004021A61DC
:10111C000223237723689B6913F4407F5FD020461A
:10112C00FFF7CEFF0023237723681A6912F0080F0C
:10113C0012D0DA6812F0080F0ED06FF008021A61A4
:10114C00042323772368DB6913F0030F4ED020466A
:10115C00FFF7B6FF0023237723681A6912F0100FEC
:10116C0012D0DA6812F0100F0ED06FF010021A6164
:10117C00082323772368DB6913F4407F3DD0204696
:10118C00FFF79EFF0023237723681A6912F0010FE3
:10119C0003D0DA6812F0010F36D123681A6912F005
:1011AC00800F03D0DA6812F0800F34D123681A69EB
:1011BC0012F0400F03D0DA6812F0400F32D12368DE
:1011CC001A6912F0200F03D0DA6812F0200F30D118
:1011DC0010BDFFF774FF2046FFF773FF8AE7204628
:1011EC00FFF76DFF2046FFF76CFF9BE72046FFF7EC
:1011FC0066FF2046FFF765FFACE72046FFF75FFF71
:10120C002046FFF75EFFBDE76FF001021A61204632
:10121C0000F0ACFAC1E76FF080021A61204600F0D2
:10122C008DF8C3E76FF040021A612046FFF74AFFC2
:10123C00C5E76FF020021A61204600F07EF8C7E780
:10124C0003681B4A90420AD0B0F1804F07D0A2F538
:10125C009432904203D002F58062904203D123F085
:10126C0070034A681343124A90420AD0B0F1804F7F
:10127C0007D0A2F59432904203D002F580629042DE
:10128C0003D123F44073CA68134323F080034A69E3
:10129C00134303608B68C3620B688362044B9842F0
:1012AC0002D00123436170470B690363F9E700BF68
:1012BC00002C0140B0B110B5044690F83D3063B13C
:1012CC00022384F83D30214651F8040BFFF7B8FF98
:1012DC00012384F83D30002010BD80F83C3000F034
:1012EC00A5FEEDE70120704790F83C30012B22D091
:1012FC0030B4012280F83C20022380F83D30046891
:10130C00636823F070036360046863680D682B43A3
:10131C0063600468A36823F08003A3600468A36877
:10132C0049680B43A36080F83D20002380F83C30D3
:10133C00184630BC7047022070477047704743789E
:10134C00DBB203718378DBB243714378DBB2837118
:10135C008378DBB2C3717047F0B583B005460127C3
:10136C00134B1F7000230370FFF7E9FF8021114816
:10137C00FFF7BEF8B0FA80F0400928722B7964268A
:10138C006A790D4C019703FB0623009394E80F0038
:10139C0000F0FCFBAA79EB79019702FB063600966C
:1013AC00103494E80F0000F0F1FB03B0F0BD00BF67
:1013BC0085040020000C01400800002030B583B0EB
:1013CC00037ADDB20378DBB2012B01D003B030BD60
:1013DC00044600EB45035B7993B900EB45031B799D
:1013EC0043B100EB45033B225A711A79013AD2B250
:1013FC001A710BE01048FFF7C7FD0323237005E0BB
:10140C0000EB45025379013BDBB2537104EB45040D
:10141C00207961796279094B03EB051382F00102A3
:10142C0002F001020192642200FB021200920FCB27
:10143C0000F0ACFBCAE700BFA004002008000020AD
:10144C0030B583B00446057AEDB20378002B47D053
:10145C0003F0FF02012A41D104EB45025179E378F4
:10146C000B44DBB253715379DBB23B2B07D9537965
:10147C003C3BDBB2537113790133DBB2137104EBD8
:10148C0045031A79D2B26378DBB29A420CD304EBDF
:10149C0045035A79D2B2A378DBB29A4204D9A37825
:1014AC00DBB204EB4502537104EB4502117952791E
:1014BC000E4B03EB051501230193642301FB03235E
:1014CC00009395E80F0000F061FB237AB3FA83F3E5
:1014DC005B092372064B1B6800225A6203B030BDB5
:1014EC00012303700248FFF743FDB5E70800002015
:1014FC00A004002008B50378DBB2012B02D0022B2C
:10150C0006D008BD022303700448FFF73DFDF8E741
:10151C00012303700148FFF72BFDF2E7A004002024
:10152C002DE9F04788B0414B9A6942F010029A615C
:10153C009A6902F010020192019A9A6942F004022F
:10154C009A619A6902F004020292029A9A6942F034
:10155C0008029A619B6903F008030393039BDFF86D
:10156C00D89001224FF400514846FEF7C8FFDFF82F
:10157C00CC80002281214046FEF7C1FF2C4E002278
:10158C004FF482513046FEF7BAFF4FF4005ACDF8B3
:10159C0010A001250595002406940227079704A99D
:1015AC004846FEF795FE812304930595069407970C
:1015BC0004A94046FEF78CFE40230493DFF880908C
:1015CC00CDF81490069504A94046FEF781FE4FF421
:1015DC008253049305950694079704A93046FEF7A9
:1015EC0077FECDF810A0CDF81490069504A93046DE
:1015FC00FEF76EFE802304930E4B0593069504A90B
:10160C003046FEF765FE224621461720FEF7F4FD14
:10161C001720FEF725FE224621462820FEF7ECFD7A
:10162C002820FEF71DFE08B0BDE8F0870010024030
:10163C00000C014000003110001001400008014076
:10164C000000211030B595B006230A9301250D95A5
:10165C000E9510230F93002411940AA8FEF780FF17
:10166C000F2305930694079408940994214605A822
:10167C00FFF79CF901954FF48073029301A8FFF7D3
:10168C0069FAFFF751FA084BA3FB00308009FEF70B
:10169C00F3FD0420FEF706FE224621464FF0FF30F4
:1016AC00FEF7AAFD15B030BDD34D621008B5FEF79C
:1016BC006DFDFFF7C7FFFFF733FF00F063F900F094
:1016CC0079FC0D4C94E80F0000F084FB103494E886
:1016DC000F0000F07FFB094B1B7823B1074B1B78E5
:1016EC00012B04D0FEE7064800F050F8F6E7054859
:1016FC00FFF732FEF6E700BF08000020850400204B
:10170C00880400207C04002010B50446802805D0F5
:10171C00B4F5005F0AD0402C15D010BD104B1B78CF
:10172C00012BF5D10F48FFF78BFEF1E70C4B1B7823
:10173C002BB1012BEFD10B48FFF7DCFEEBE70A488E
:10174C0000F0A8F8E7E7064B1B782BB1012BE4D18E
:10175C000448FFF7CFFEE0E7034800F035F8DCE77C
:10176C00850400207C0400208804002008B5026851
:10177C00034B9A4200D008BD0248FFF71FFEFAE760
:10178C00002C01407C0400207047000010B582B092
:10179C0000230B4A137003704370052383700823D6
:1017AC00C3700378074C009394E80F0000F05CFAC8
:1017BC00103494E80F0000F0A7FA02B010BD00BF7F
:1017CC00850400200800002070B582B00446037820
:1017DC000133DBB203700378DBB2032B01D9002396
:1017EC0003702378DBB2032B11D8DFE803F002126D
:1017FC002C3D264C0023009394E80F0000F034FAA3
:10180C0004230093103494E80F0000F02DFA02B07A
:10181C0070BD1E4D0126009695E80F0000F024FACD
:10182C00A2781B4B13F81220A17803EB41035B78D1
:10183C000196642101FB02330093103595E80F00EB
:10184C0000F0A4F9E3E7114D0223009395E80F0093
:10185C0000F00AFA6378002201920093103595E8A3
:10186C000F0000F093F9D2E7084D0323009395E89D
:10187C000F0000F0F9F9E378002201920093103583
:10188C0095E80F0000F082F9C1E700BF08000020C6
:10189C004822000870B582B004460378DBB2032BF3
:1018AC0013D8DFE803F0021431444378DBB231483B
:1018BC00C370A278304B13F812204270A27803EB5D
:1018CC0042035B788370FFF747FD02B070BD8378ED
:1018DC000133DBB283708378DBB2092B01D900238F
:1018EC008370A278244B13F81220A17803EB4103E8
:1018FC005B7801210191642101FB023300931F4BA2
:10190C000FCB00F043F9E0E743780133DBB24370CF
:10191C004378DBB20F2B01D900234370637800228C
:10192C0001920093154B0FCB00F030F9CDE7C37843
:10193C000133DBB2C370C378DBB2082B01D90123AE
:10194C00C370E3780E4E00220192009306F110054D
:10195C0095E80F0000F01AF9E378009396E80F0071
:10196C0000F01BFAE378009395E80F0000F015FAED
:10197C00ABE700BF7C0400204822000818000020C0
:10198C000800002008B50948094B03604FF0FF33ED
:10199C0043604FF480738360FFF730FA00B908BDE1
:1019AC003C210448FFF7F0FEF9E700BF8C0400204F
:1019BC00002800405C2200080268104B9A4200D0BC
:1019CC00704700B583B0FEF7AFFD0D4BDA6942F0FE
:1019DC000062DA61DB6903F000630193019B094B40
:1019EC0001221A60002211460320FEF705FC032099
:1019FC00FEF736FC03B05DF804FB00BF0028004086
:101A0C00001002403C04424200E0013828B100239F
:101A1C00092BFADC00BF0133FAE7704700B585B03B
:101A2C000DF1100C0CE90F000122BDF80C100298FE
:101A3C00FEF765FD05B05DF804FB00B585B00DF152
:101A4C00100C0CE90F000022BDF80C100298FEF7E8
:101A5C0056FD05B05DF804FB10B584B06C4684E807
:101A6C000F0094E80F00FFF7E8FF0520FFF7CCFF0D
:101A7C0094E80F00FFF7D2FF0220FFF7C5FF94E8B0
:101A8C000F00FFF7DAFF04B010BD00B585B00DF103
:101A9C00100C0CE90F000122BDF804100098FEF7A1
:101AAC002EFD05B05DF804FB00B585B00DF1100CF2
:101ABC000CE90F000022BDF804100098FEF71FFD82
:101ACC0005B05DF804FB10B584B06C4684E80F00DB
:101ADC0094E80F00FFF7A2FF94E80F00FFF7D5FF83
:101AEC000220FFF791FF94E80F00FFF7DDFF04B031
:101AFC0010BD10B584B06C4684E80F0094E80F005C
:101B0C00FFF79BFF0220FFF77FFF94E80F00FFF722
:101B1C00CBFF0220FFF778FF94E80F00FFF77EFF62
:101B2C000220FFF771FF94E80F00FFF7AEFF04B03F
:101B3C0010BD30B585B004AC04E90F009DF8205001
:101B4C00002411E004AB13E90F00FFF7ADFF0320F5
:101B5C00FFF75AFF6D0804AB13E90F00FFF75EFFA8
:101B6C000320FFF751FF0134072C0DDC04AB13E904
:101B7C000F00FFF762FF15F0010FE3D004AB13E980
:101B8C000F00FFF782FFE2E705B030BD30B589B03A
:101B9C0002AC84E80F000C9A002006E0304B83FB6B
:101BAC000213D217C2EBA302013003281BDC2C4911
:101BBC0081FB0231D317C3EBA10303EB8303590061
:101BCC00531A2849CB5C08A9014401F8043C0228AB
:101BDC00E4D10D990029E1D063F07F0308A90144F9
:101BEC0001F8043CDAE702AC94E80F00FFF76BFF56
:101BFC004023009394E80F00FFF79BFF94E80F003D
:101C0C00FFF72AFF94E80F00FFF773FF94E80F002B
:101C1C00FFF759FFC023009394E80F00FFF789FFEB
:101C2C0094E80F00FFF718FF002510E0C5F103033F
:101C3C0008AA134413F8043C009302AC94E80F0078
:101C4C00FFF777FF94E80F00FFF706FF0135032D30
:101C5C00ECDD02AB0FCBFFF74CFF09B030BD00BF82
:101C6C00676666666822000830B589B002AC84E805
:101C7C000F009DF83000002308E0224A02EB80029E
:101C8C00D15C08AA1A4402F8041C0133032BF4DDBE
:101C9C0002AC94E80F00FFF716FF4023009394E882
:101CAC000F00FFF746FF94E80F00FFF7D5FE94E80E
:101CBC000F00FFF71EFF94E80F00FFF704FFC0238F
:101CCC00009394E80F00FFF734FF94E80F00FFF740
:101CDC00C3FE00250EE008AB2B4413F8043C009324
:101CEC0002AC94E80F00FFF724FF94E80F00FFF715
:101CFC00B3FE0135032DEEDD02AB0FCBFFF7F9FE82
:101D0C0009B030BD7C22000830B589B002AC84E843
:101D1C000F00002305E008AA1A44002102F8041C55
:101D2C000133032BF7DD02AC94E80F00FFF7CBFE79
:101D3C004023009394E80F00FFF7FBFE94E80F009C
:101D4C00FFF78AFE94E80F00FFF7D3FE94E80F002C
:101D5C00FFF7B9FEC023009394E80F00FFF7E9FEEC
:101D6C0094E80F00FFF778FE00250EE008AB2B443B
:101D7C0013F8043C009302AC94E80F00FFF7D9FE73
:101D8C0094E80F00FFF768FE0135032DEEDD02AB82
:101D9C000FCBFFF7AEFE09B030BD10B586B002AC6C
:101DAC0084E80F0094E80F00FFF78DFE9DF82030BB
:101DBC00793BDBB2009394E80F00FFF7BAFE94E88E
:101DCC000F00FFF749FE94E80F00FFF792FE06B0F4
:101DDC0010BD000010B58CB002AC84E80F00174B9E
:101DEC009A6942F008029A619A6902F00802069216
:101DFC00069A9A6942F008029A619B6903F00803FB
:101E0C000793079B01230A931123099303230B9335
:101E1C00BDF81430089308A90498FEF759FABDF8D8
:101E2C000C30089308A90298FEF752FA0823009385
:101E3C0094E80F00FFF7B1FF0CB010BD001002408A
:101E4C0000B583B0244B9A6942F001029A619A69F9
:101E5C0002F001020092009ADA6942F08052DA61D3
:101E6C00DB6903F080530193019B0320FEF7B2F969
:101E7C00002211466FF00B00FEF7BEF9002211464E
:101E8C006FF00A00FEF7B8F9002211466FF0090056
:101E9C00FEF7B2F9002211466FF00400FEF7ACF920
:101EAC00002211466FF00300FEF7A6F9002211463E
:101EBC006FF00100FEF7A0F9002211464FF0FF3041
:101ECC00FEF79AF9054A536823F0E06343F0007378
:101EDC00536003B05DF804FB0010024000000140A9
:101EEC007047FEE7FEE7FEE7FEE770477047704776
:101EFC0008B5FEF75DF9FEF7E6F908BD08B502482E
:101F0C00FEF7DCFF08BD00BF8C04002008B54020A4
:101F1C00FEF7FCFA8020FEF7F9FA08BD08B5024876
:101F2C00FFF7D1F808BD00BFA004002008B5024897
:101F3C00FFF7C9F808BD00BFA004002008B502488F
:101F4C00FFF7C1F808BD00BFA004002008B5024887
:101F5C00FFF7B9F808BD00BFA004002008B54FF486
:101F6C000050FEF7D3FA08BD0F4B1A6842F001027D
:101F7C001A6059680D4A0A405A601A6822F0847235
:101F8C0022F480321A601A6822F480221A605A688D
:101F9C0022F4FE025A604FF41F029A60044B4FF079
:101FAC0000629A60704700BF001002400000FFF80A
:101FBC0000ED00E000B587B019481A4B03604FF4F0
:101FCC00FA5343600023836040F2E732C26003613E
:101FDC0043618361FFF76EF990B94FF4805302931C
:101FEC0002A90F48FEF7E6FF78B90023009301938E
:101FFC0069460B48FFF778F960B907B05DF804FB48
:10200C0040210948FFF7C0FBE7E746210648FFF7E8
:10201C00BBFBEAE74D210448FFF7B6FBEDE700BF39
:10202C00A0040020002C0140A822000802681A4BD2
:10203C009A4200D0704700B583B003F564439A69A7
:10204C0042F400629A619B6903F400630193019B63
:10205C00002211461820FEF7CFF81820FEF700F9E1
:10206C00002211461920FEF7C7F81920FEF7F8F8E0
:10207C00002211461A20FEF7BFF81A20FEF7F0F8DE
:10208C00002211461B20FEF7B7F81B20FEF7E8F8DC
:10209C0003B05DF804FB00BF002C0140002103E0FD
:1020AC000B4B5B58435004310A480B4B42189A4275
:1020BC00F6D30A4A02E0002342F8043B084B9A424A
:1020CC00F9D3FFF751FF00F00FF8FFF7EFFA704765
:1020DC00C4220008000000205C0400205C040020E6
:1020EC0004050020FEE7000070B50D4E0D4D761B6B
:1020FC00B61006D0002455F8043B01349847A6428C
:10210C00F9D1094E094D00F083F8761BB61006D0B4
:10211C00002455F8043B01349847A642F9D170BD10
:10212C00B8220008B8220008C0220008B822000813
:10213C00024B13B1024800F005B8704700000000D4
:10214C005D210008002301461A46184600F01AB813
:10215C0038B5084B084D5B1B9C1007D0043B1D4445
:10216C00013C55F804399847002CF9D1BDE83840AA
:10217C0000F054B8C4220008C0220008704700BF09
:10218C00704700BF2DE9F047DFF880A00646DAF86B
:10219C00000098460F469146FFF7F0FF1A4B1B685C
:1021AC00D3F8484124B365681F2D26DC5EB96B1C3F
:1021BC000235DAF80000636044F82570FFF7E0FFA1
:1021CC000020BDE8F087012304EB8501C1F888905D
:1021DC00D4F88821AB401A43022EC4F88821C1F8E8
:1021EC000881E4D1D4F88C211343C4F88C31DEE798
:1021FC0003F5A674C3F84841D5E7DAF80000FFF7F9
:10220C00BFFF4FF0FF30DCE7B42200085804002079
:10221C00F8B500BFF8BC08BC9E467047F8B500BFC7
:08222C00F8BC08BC9E46704797
:1022340002030405060708090A0B0C0D0E0F101003
:102244000000000002000300040005000A000F0063
:1022540014001E003C005A005372632F7274632EE4
:10226400630000003F065B4F666D7D077F6F777CE0
:10227400395E7971000000006D787750781054440D
:102284007C5C541C7C50106F0000000000000000B7
:102294000000000001020304060708090000000012
:1022A400010203045372632F74696D2E63000000EE
:0422B40030000020D6
:0822B8003D210008310100087E
:0422C0000D01000804
:1022C4000100000010000000000C014000080000A4
:1022D400000C014000040000000C0140000200005A
:1022E400000C01400001000000A24A0400000000AC
:1022F400000000001C03002084030020EC030020E5
:1023040000000000000000000000000000000000C9
:1023140000000000000000000000000000000000B9
:1023240000000000000000000000000000000000A9
:102334000000000000000000000000000000000099
:102344000000000000000000000000000000000089
:102354000000000000000000000000000000000079
:102364000000000000000000000000000000000069
:102374000000000000000000000000000000000059
:102384000000000000000000000000000000000049
:102394000000000000000000010000000000000038
:1023A4000E33CDAB34126DE6ECDE05000B000000FD
:1023B4000000000000000000000000000000000019
:1023C4000000000000000000000000000000000009
:1023D40000000000000000000000000000000000F9
:1023E40000000000000000000000000000000000E9
:0C2714000000000000000000E0040020B5
:04000005080020A926
:00000001FF
